{
  "contractName": "SupplyChain",
  "abi": [
    {
      "constant": false,
      "inputs": [
        {
          "name": "account",
          "type": "address"
        }
      ],
      "name": "addConsumer",
      "outputs": [],
      "payable": false,
      "stateMutability": "nonpayable",
      "type": "function"
    },
    {
      "constant": true,
      "inputs": [
        {
          "name": "account",
          "type": "address"
        }
      ],
      "name": "isRetailer",
      "outputs": [
        {
          "name": "",
          "type": "bool"
        }
      ],
      "payable": false,
      "stateMutability": "view",
      "type": "function"
    },
    {
      "constant": false,
      "inputs": [],
      "name": "renounceConsumer",
      "outputs": [],
      "payable": false,
      "stateMutability": "nonpayable",
      "type": "function"
    },
    {
      "constant": false,
      "inputs": [],
      "name": "renounceDistributor",
      "outputs": [],
      "payable": false,
      "stateMutability": "nonpayable",
      "type": "function"
    },
    {
      "constant": false,
      "inputs": [],
      "name": "renounceOwnership",
      "outputs": [],
      "payable": false,
      "stateMutability": "nonpayable",
      "type": "function"
    },
    {
      "constant": false,
      "inputs": [
        {
          "name": "account",
          "type": "address"
        }
      ],
      "name": "addDistributor",
      "outputs": [],
      "payable": false,
      "stateMutability": "nonpayable",
      "type": "function"
    },
    {
      "constant": false,
      "inputs": [
        {
          "name": "account",
          "type": "address"
        }
      ],
      "name": "addFarmer",
      "outputs": [],
      "payable": false,
      "stateMutability": "nonpayable",
      "type": "function"
    },
    {
      "constant": false,
      "inputs": [],
      "name": "renounceFarmer",
      "outputs": [],
      "payable": false,
      "stateMutability": "nonpayable",
      "type": "function"
    },
    {
      "constant": true,
      "inputs": [
        {
          "name": "account",
          "type": "address"
        }
      ],
      "name": "isConsumer",
      "outputs": [
        {
          "name": "",
          "type": "bool"
        }
      ],
      "payable": false,
      "stateMutability": "view",
      "type": "function"
    },
    {
      "constant": false,
      "inputs": [
        {
          "name": "account",
          "type": "address"
        }
      ],
      "name": "addRetailer",
      "outputs": [],
      "payable": false,
      "stateMutability": "nonpayable",
      "type": "function"
    },
    {
      "constant": true,
      "inputs": [
        {
          "name": "account",
          "type": "address"
        }
      ],
      "name": "isDistributor",
      "outputs": [
        {
          "name": "",
          "type": "bool"
        }
      ],
      "payable": false,
      "stateMutability": "view",
      "type": "function"
    },
    {
      "constant": true,
      "inputs": [],
      "name": "isOwner",
      "outputs": [
        {
          "name": "",
          "type": "bool"
        }
      ],
      "payable": false,
      "stateMutability": "view",
      "type": "function"
    },
    {
      "constant": true,
      "inputs": [],
      "name": "_owner",
      "outputs": [
        {
          "name": "",
          "type": "address"
        }
      ],
      "payable": false,
      "stateMutability": "view",
      "type": "function"
    },
    {
      "constant": true,
      "inputs": [
        {
          "name": "account",
          "type": "address"
        }
      ],
      "name": "isFarmer",
      "outputs": [
        {
          "name": "",
          "type": "bool"
        }
      ],
      "payable": false,
      "stateMutability": "view",
      "type": "function"
    },
    {
      "constant": false,
      "inputs": [],
      "name": "renounceRetailer",
      "outputs": [],
      "payable": false,
      "stateMutability": "nonpayable",
      "type": "function"
    },
    {
      "constant": false,
      "inputs": [
        {
          "name": "newOwner",
          "type": "address"
        }
      ],
      "name": "transferOwnership",
      "outputs": [],
      "payable": false,
      "stateMutability": "nonpayable",
      "type": "function"
    },
    {
      "inputs": [],
      "payable": true,
      "stateMutability": "payable",
      "type": "constructor"
    },
    {
      "anonymous": false,
      "inputs": [
        {
          "indexed": false,
          "name": "UPC",
          "type": "uint256"
        }
      ],
      "name": "Collected",
      "type": "event"
    },
    {
      "anonymous": false,
      "inputs": [
        {
          "indexed": false,
          "name": "UPC",
          "type": "uint256"
        }
      ],
      "name": "Tested",
      "type": "event"
    },
    {
      "anonymous": false,
      "inputs": [
        {
          "indexed": false,
          "name": "UPC",
          "type": "uint256"
        }
      ],
      "name": "Packed",
      "type": "event"
    },
    {
      "anonymous": false,
      "inputs": [
        {
          "indexed": false,
          "name": "UPC",
          "type": "uint256"
        }
      ],
      "name": "ForSale",
      "type": "event"
    },
    {
      "anonymous": false,
      "inputs": [
        {
          "indexed": false,
          "name": "UPC",
          "type": "uint256"
        }
      ],
      "name": "Sold",
      "type": "event"
    },
    {
      "anonymous": false,
      "inputs": [
        {
          "indexed": false,
          "name": "UPC",
          "type": "uint256"
        }
      ],
      "name": "Transported",
      "type": "event"
    },
    {
      "anonymous": false,
      "inputs": [
        {
          "indexed": false,
          "name": "UPC",
          "type": "uint256"
        }
      ],
      "name": "Received",
      "type": "event"
    },
    {
      "anonymous": false,
      "inputs": [
        {
          "indexed": false,
          "name": "UPC",
          "type": "uint256"
        }
      ],
      "name": "Purchased",
      "type": "event"
    },
    {
      "anonymous": false,
      "inputs": [
        {
          "indexed": true,
          "name": "account",
          "type": "address"
        }
      ],
      "name": "RetailerAdded",
      "type": "event"
    },
    {
      "anonymous": false,
      "inputs": [
        {
          "indexed": true,
          "name": "account",
          "type": "address"
        }
      ],
      "name": "RetailerRemoved",
      "type": "event"
    },
    {
      "anonymous": false,
      "inputs": [
        {
          "indexed": true,
          "name": "account",
          "type": "address"
        }
      ],
      "name": "FarmerAdded",
      "type": "event"
    },
    {
      "anonymous": false,
      "inputs": [
        {
          "indexed": true,
          "name": "account",
          "type": "address"
        }
      ],
      "name": "FarmerRemoved",
      "type": "event"
    },
    {
      "anonymous": false,
      "inputs": [
        {
          "indexed": true,
          "name": "account",
          "type": "address"
        }
      ],
      "name": "DistributorAdded",
      "type": "event"
    },
    {
      "anonymous": false,
      "inputs": [
        {
          "indexed": true,
          "name": "account",
          "type": "address"
        }
      ],
      "name": "DistributorRemoved",
      "type": "event"
    },
    {
      "anonymous": false,
      "inputs": [
        {
          "indexed": true,
          "name": "account",
          "type": "address"
        }
      ],
      "name": "ConsumerAdded",
      "type": "event"
    },
    {
      "anonymous": false,
      "inputs": [
        {
          "indexed": true,
          "name": "account",
          "type": "address"
        }
      ],
      "name": "ConsumerRemoved",
      "type": "event"
    },
    {
      "anonymous": false,
      "inputs": [
        {
          "indexed": true,
          "name": "oldOwner",
          "type": "address"
        },
        {
          "indexed": true,
          "name": "newOwner",
          "type": "address"
        }
      ],
      "name": "TransferOwnership",
      "type": "event"
    },
    {
      "constant": false,
      "inputs": [],
      "name": "kill",
      "outputs": [],
      "payable": false,
      "stateMutability": "nonpayable",
      "type": "function"
    },
    {
      "constant": false,
      "inputs": [
        {
          "name": "_UPC",
          "type": "uint256"
        },
        {
          "name": "_originFarmerID",
          "type": "address"
        },
        {
          "name": "_originFarmName",
          "type": "string"
        },
        {
          "name": "_originFarmInformation",
          "type": "string"
        },
        {
          "name": "_originFarmLatitude",
          "type": "string"
        },
        {
          "name": "_originFarmLongitude",
          "type": "string"
        },
        {
          "name": "_productNotes",
          "type": "string"
        }
      ],
      "name": "collectItem",
      "outputs": [],
      "payable": false,
      "stateMutability": "nonpayable",
      "type": "function"
    },
    {
      "constant": false,
      "inputs": [
        {
          "name": "_UPC",
          "type": "uint256"
        }
      ],
      "name": "testItem",
      "outputs": [],
      "payable": false,
      "stateMutability": "nonpayable",
      "type": "function"
    },
    {
      "constant": false,
      "inputs": [
        {
          "name": "_UPC",
          "type": "uint256"
        }
      ],
      "name": "packItem",
      "outputs": [],
      "payable": false,
      "stateMutability": "nonpayable",
      "type": "function"
    },
    {
      "constant": false,
      "inputs": [
        {
          "name": "_UPC",
          "type": "uint256"
        },
        {
          "name": "_price",
          "type": "uint256"
        }
      ],
      "name": "sellItem",
      "outputs": [],
      "payable": false,
      "stateMutability": "nonpayable",
      "type": "function"
    },
    {
      "constant": false,
      "inputs": [
        {
          "name": "_UPC",
          "type": "uint256"
        }
      ],
      "name": "buyItem",
      "outputs": [],
      "payable": true,
      "stateMutability": "payable",
      "type": "function"
    },
    {
      "constant": false,
      "inputs": [
        {
          "name": "_UPC",
          "type": "uint256"
        }
      ],
      "name": "transportItem",
      "outputs": [],
      "payable": false,
      "stateMutability": "nonpayable",
      "type": "function"
    },
    {
      "constant": false,
      "inputs": [
        {
          "name": "_UPC",
          "type": "uint256"
        }
      ],
      "name": "receiveItem",
      "outputs": [],
      "payable": false,
      "stateMutability": "nonpayable",
      "type": "function"
    },
    {
      "constant": false,
      "inputs": [
        {
          "name": "_UPC",
          "type": "uint256"
        }
      ],
      "name": "purchaseItem",
      "outputs": [],
      "payable": false,
      "stateMutability": "nonpayable",
      "type": "function"
    },
    {
      "constant": true,
      "inputs": [
        {
          "name": "_UPC",
          "type": "uint256"
        }
      ],
      "name": "fetchItemBufferOne",
      "outputs": [
        {
          "name": "itemSKU",
          "type": "uint256"
        },
        {
          "name": "itemUPC",
          "type": "uint256"
        },
        {
          "name": "ownerID",
          "type": "address"
        },
        {
          "name": "originFarmerID",
          "type": "address"
        },
        {
          "name": "originFarmName",
          "type": "string"
        },
        {
          "name": "originFarmInformation",
          "type": "string"
        },
        {
          "name": "originFarmLatitude",
          "type": "string"
        },
        {
          "name": "originFarmLongitude",
          "type": "string"
        }
      ],
      "payable": false,
      "stateMutability": "view",
      "type": "function"
    },
    {
      "constant": true,
      "inputs": [
        {
          "name": "_UPC",
          "type": "uint256"
        }
      ],
      "name": "fetchItemBufferTwo",
      "outputs": [
        {
          "name": "itemSKU",
          "type": "uint256"
        },
        {
          "name": "itemUPC",
          "type": "uint256"
        },
        {
          "name": "productID",
          "type": "uint256"
        },
        {
          "name": "productNotes",
          "type": "string"
        },
        {
          "name": "productPrice",
          "type": "uint256"
        },
        {
          "name": "itemState",
          "type": "uint256"
        },
        {
          "name": "distributorID",
          "type": "address"
        },
        {
          "name": "retailerID",
          "type": "address"
        },
        {
          "name": "consumerID",
          "type": "address"
        }
      ],
      "payable": false,
      "stateMutability": "view",
      "type": "function"
    }
  ],
  "bytecode": "0x6080604052336000806101000a81548173ffffffffffffffffffffffffffffffffffffffff021916908373ffffffffffffffffffffffffffffffffffffffff1602179055506000809054906101000a900473ffffffffffffffffffffffffffffffffffffffff1673ffffffffffffffffffffffffffffffffffffffff16600073ffffffffffffffffffffffffffffffffffffffff167f5c486528ec3e3f0ea91181cff8116f02bfa350e03b8b6f12e00765adbb5af85c60405160405180910390a3620000d1336200015b60201b60201c565b620000e233620001bc60201b60201c565b620000f3336200021d60201b60201c565b62000104336200027e60201b60201c565b33600560006101000a81548173ffffffffffffffffffffffffffffffffffffffff021916908373ffffffffffffffffffffffffffffffffffffffff1602179055506001600781905550600160068190555062000428565b62000176816001620002df60201b6200320f1790919060201c565b8073ffffffffffffffffffffffffffffffffffffffff167f28b26e7a3d20aedbc5f8f2ebf7da671c0491723a2b78f47a097b0e46dee0714260405160405180910390a250565b620001d7816002620002df60201b6200320f1790919060201c565b8073ffffffffffffffffffffffffffffffffffffffff167fddbf200aa634dc3fb81cfd68583dd1040d1c751d335e1d86b631bde3e977fea860405160405180910390a250565b62000238816003620002df60201b6200320f1790919060201c565b8073ffffffffffffffffffffffffffffffffffffffff167f2e0ded4123377a3c2bc9a26f1717655a129e2f20752924d42e730ec89c83dbd060405160405180910390a250565b62000299816004620002df60201b6200320f1790919060201c565b8073ffffffffffffffffffffffffffffffffffffffff167f71ae26cad02663e3d92efd6ec56031a80d74a20c0ab4183faa8bf262261c9baa60405160405180910390a250565b600073ffffffffffffffffffffffffffffffffffffffff168173ffffffffffffffffffffffffffffffffffffffff1614156200031a57600080fd5b6200032c82826200039560201b60201c565b156200033757600080fd5b60018260000160008373ffffffffffffffffffffffffffffffffffffffff1673ffffffffffffffffffffffffffffffffffffffff16815260200190815260200160002060006101000a81548160ff0219169083151502179055505050565b60008073ffffffffffffffffffffffffffffffffffffffff168273ffffffffffffffffffffffffffffffffffffffff161415620003d157600080fd5b8260000160008373ffffffffffffffffffffffffffffffffffffffff1673ffffffffffffffffffffffffffffffffffffffff16815260200190815260200160002060009054906101000a900460ff16905092915050565b6135dc80620004386000396000f3fe60806040526004361061019c5760003560e01c806380c3f96d116100ec578063b2bdfa7b1161008a578063db0e6a2f11610064578063db0e6a2f14610ddd578063e7fb74c714610df4578063f2fde38b14610e22578063f30fc48014610e735761019c565b8063b2bdfa7b14610ce2578063b942906914610d39578063d38ea5bf14610da25761019c565b80638ec4f505116100c65780638ec4f50514610bbe5780638f0c86fa14610c0f5780638f32d59b14610c78578063a26be99914610ca75761019c565b806380c3f96d14610aed57806380fc0ce414610b3e578063834ff73914610b555761019c565b806360d188141161015957806366225ff91161013357806366225ff9146106a9578063715018a6146108195780637250e2241461083057806377c45913146108815761019c565b806360d188141461032d57806361e6982d1461067b578063644241db146106925761019c565b8063112940f9146101a15780632beb8a9b146101f25780632d9235611461022d57806341c0e1b5146102725780635cc493de146102895780635da09b88146102c4575b600080fd5b3480156101ad57600080fd5b506101f0600480360360208110156101c457600080fd5b81019080803573ffffffffffffffffffffffffffffffffffffffff169060200190929190505050610eae565b005b3480156101fe57600080fd5b5061022b6004803603602081101561021557600080fd5b8101908080359060200190929190505050610f18565b005b34801561023957600080fd5b506102706004803603604081101561025057600080fd5b810190808035906020019092919080359060200190929190505050611172565b005b34801561027e57600080fd5b506102876113e8565b005b34801561029557600080fd5b506102c2600480360360208110156102ac57600080fd5b810190808035906020019092919050505061147b565b005b3480156102d057600080fd5b50610313600480360360208110156102e757600080fd5b81019080803573ffffffffffffffffffffffffffffffffffffffff1690602001909291905050506116d5565b604051808215151515815260200191505060405180910390f35b34801561033957600080fd5b50610679600480360360e081101561035057600080fd5b8101908080359060200190929190803573ffffffffffffffffffffffffffffffffffffffff1690602001909291908035906020019064010000000081111561039757600080fd5b8201836020820111156103a957600080fd5b803590602001918460018302840111640100000000831117156103cb57600080fd5b91908080601f016020809104026020016040519081016040528093929190818152602001838380828437600081840152601f19601f8201169050808301925050505050505091929192908035906020019064010000000081111561042e57600080fd5b82018360208201111561044057600080fd5b8035906020019184600183028401116401000000008311171561046257600080fd5b91908080601f016020809104026020016040519081016040528093929190818152602001838380828437600081840152601f19601f820116905080830192505050505050509192919290803590602001906401000000008111156104c557600080fd5b8201836020820111156104d757600080fd5b803590602001918460018302840111640100000000831117156104f957600080fd5b91908080601f016020809104026020016040519081016040528093929190818152602001838380828437600081840152601f19601f8201169050808301925050505050505091929192908035906020019064010000000081111561055c57600080fd5b82018360208201111561056e57600080fd5b8035906020019184600183028401116401000000008311171561059057600080fd5b91908080601f016020809104026020016040519081016040528093929190818152602001838380828437600081840152601f19601f820116905080830192505050505050509192919290803590602001906401000000008111156105f357600080fd5b82018360208201111561060557600080fd5b8035906020019184600183028401116401000000008311171561062757600080fd5b91908080601f016020809104026020016040519081016040528093929190818152602001838380828437600081840152601f19601f8201169050808301925050505050505091929192905050506116f2565b005b34801561068757600080fd5b506106906119cb565b005b34801561069e57600080fd5b506106a76119d6565b005b3480156106b557600080fd5b506106e2600480360360208110156106cc57600080fd5b81019080803590602001909291905050506119e1565b604051808a8152602001898152602001888152602001806020018781526020018681526020018573ffffffffffffffffffffffffffffffffffffffff1673ffffffffffffffffffffffffffffffffffffffff1681526020018473ffffffffffffffffffffffffffffffffffffffff1673ffffffffffffffffffffffffffffffffffffffff1681526020018373ffffffffffffffffffffffffffffffffffffffff1673ffffffffffffffffffffffffffffffffffffffff168152602001828103825288818151815260200191508051906020019080838360005b838110156107d65780820151818401526020810190506107bb565b50505050905090810190601f1680156108035780820380516001836020036101000a031916815260200191505b509a505050505050505050505060405180910390f35b34801561082557600080fd5b5061082e611bee565b005b34801561083c57600080fd5b5061087f6004803603602081101561085357600080fd5b81019080803573ffffffffffffffffffffffffffffffffffffffff169060200190929190505050611d0a565b005b34801561088d57600080fd5b506108ba600480360360208110156108a457600080fd5b8101908080359060200190929190505050611d74565b604051808981526020018881526020018773ffffffffffffffffffffffffffffffffffffffff1673ffffffffffffffffffffffffffffffffffffffff1681526020018673ffffffffffffffffffffffffffffffffffffffff1673ffffffffffffffffffffffffffffffffffffffff16815260200180602001806020018060200180602001858103855289818151815260200191508051906020019080838360005b8381101561097657808201518184015260208101905061095b565b50505050905090810190601f1680156109a35780820380516001836020036101000a031916815260200191505b50858103845288818151815260200191508051906020019080838360005b838110156109dc5780820151818401526020810190506109c1565b50505050905090810190601f168015610a095780820380516001836020036101000a031916815260200191505b50858103835287818151815260200191508051906020019080838360005b83811015610a42578082015181840152602081019050610a27565b50505050905090810190601f168015610a6f5780820380516001836020036101000a031916815260200191505b50858103825286818151815260200191508051906020019080838360005b83811015610aa8578082015181840152602081019050610a8d565b50505050905090810190601f168015610ad55780820380516001836020036101000a031916815260200191505b509c5050505050505050505050505060405180910390f35b348015610af957600080fd5b50610b3c60048036036020811015610b1057600080fd5b81019080803573ffffffffffffffffffffffffffffffffffffffff1690602001909291905050506120f3565b005b348015610b4a57600080fd5b50610b5361217a565b005b348015610b6157600080fd5b50610ba460048036036020811015610b7857600080fd5b81019080803573ffffffffffffffffffffffffffffffffffffffff169060200190929190505050612185565b604051808215151515815260200191505060405180910390f35b348015610bca57600080fd5b50610c0d60048036036020811015610be157600080fd5b81019080803573ffffffffffffffffffffffffffffffffffffffff1690602001909291905050506121a2565b005b348015610c1b57600080fd5b50610c5e60048036036020811015610c3257600080fd5b81019080803573ffffffffffffffffffffffffffffffffffffffff169060200190929190505050612229565b604051808215151515815260200191505060405180910390f35b348015610c8457600080fd5b50610c8d612246565b604051808215151515815260200191505060405180910390f35b348015610cb357600080fd5b50610ce060048036036020811015610cca57600080fd5b810190808035906020019092919050505061229d565b005b348015610cee57600080fd5b50610cf76124c8565b604051808273ffffffffffffffffffffffffffffffffffffffff1673ffffffffffffffffffffffffffffffffffffffff16815260200191505060405180910390f35b348015610d4557600080fd5b50610d8860048036036020811015610d5c57600080fd5b81019080803573ffffffffffffffffffffffffffffffffffffffff1690602001909291905050506124f1565b604051808215151515815260200191505060405180910390f35b348015610dae57600080fd5b50610ddb60048036036020811015610dc557600080fd5b810190808035906020019092919050505061250e565b005b348015610de957600080fd5b50610df261271c565b005b610e2060048036036020811015610e0a57600080fd5b8101908080359060200190929190505050612727565b005b348015610e2e57600080fd5b50610e7160048036036020811015610e4557600080fd5b81019080803573ffffffffffffffffffffffffffffffffffffffff169060200190929190505050612aa6565b005b348015610e7f57600080fd5b50610eac60048036036020811015610e9657600080fd5b8101908080359060200190929190505050612b0f565b005b610eb733612185565b610f0c576040517f08c379a00000000000000000000000000000000000000000000000000000000081526004018080602001828103825260228152602001806134536022913960400191505060405180910390fd5b610f1581612d69565b50565b8060046007811115610f2657fe5b60086000838152602001908152602001600020600b0160009054906101000a900460ff166007811115610f5557fe5b14610fc8576040517f08c379a00000000000000000000000000000000000000000000000000000000081526004018080602001828103825260208152602001807f4974656d206973206e6f7420696e207468652027536f6c64272053746174652e81525060200191505060405180910390fd5b6008600083815260200190815260200160002060020160009054906101000a900473ffffffffffffffffffffffffffffffffffffffff168073ffffffffffffffffffffffffffffffffffffffff163373ffffffffffffffffffffffffffffffffffffffff16146110a0576040517f08c379a000000000000000000000000000000000000000000000000000000000815260040180806020018281038252601c8152602001807f436f756c64206e6f7420766572696679207468652063616c6c65722e0000000081525060200191505060405180910390fd5b6110a933612229565b6110fe576040517f08c379a000000000000000000000000000000000000000000000000000000000815260040180806020018281038252602581526020018061342e6025913960400191505060405180910390fd5b600560086000858152602001908152602001600020600b0160006101000a81548160ff0219169083600781111561113157fe5b02179055507fd51e2b69fb97fa1165779f8c2978c93580dfc6acb11293b8e8f510eea6fae0c8836040518082815260200191505060405180910390a1505050565b816002600781111561118057fe5b60086000838152602001908152602001600020600b0160009054906101000a900460ff1660078111156111af57fe5b14611205576040517f08c379a000000000000000000000000000000000000000000000000000000000815260040180806020018281038252602281526020018061358f6022913960400191505060405180910390fd5b6008600084815260200190815260200160002060020160009054906101000a900473ffffffffffffffffffffffffffffffffffffffff168073ffffffffffffffffffffffffffffffffffffffff163373ffffffffffffffffffffffffffffffffffffffff16146112dd576040517f08c379a000000000000000000000000000000000000000000000000000000000815260040180806020018281038252601c8152602001807f436f756c64206e6f7420766572696679207468652063616c6c65722e0000000081525060200191505060405180910390fd5b6112e6336124f1565b611358576040517f08c379a00000000000000000000000000000000000000000000000000000000081526004018080602001828103825260208152602001807f596f7520646f206e6f74206861766520746865206661726d657220726f6c652e81525060200191505060405180910390fd5b8260086000868152602001908152602001600020600a0181905550600360086000868152602001908152602001600020600b0160006101000a81548160ff021916908360078111156113a657fe5b02179055507fa96ae0fc3224ebd79eebfe54bd130cc9cb94416cddd1f2386115e00b72532468846040518082815260200191505060405180910390a150505050565b600560009054906101000a900473ffffffffffffffffffffffffffffffffffffffff1673ffffffffffffffffffffffffffffffffffffffff163373ffffffffffffffffffffffffffffffffffffffff16141561147957600560009054906101000a900473ffffffffffffffffffffffffffffffffffffffff1673ffffffffffffffffffffffffffffffffffffffff16ff5b565b806000600781111561148957fe5b60086000838152602001908152602001600020600b0160009054906101000a900460ff1660078111156114b857fe5b1461150e576040517f08c379a00000000000000000000000000000000000000000000000000000000081526004018080602001828103825260258152602001806134996025913960400191505060405180910390fd5b6008600083815260200190815260200160002060020160009054906101000a900473ffffffffffffffffffffffffffffffffffffffff168073ffffffffffffffffffffffffffffffffffffffff163373ffffffffffffffffffffffffffffffffffffffff16146115e6576040517f08c379a000000000000000000000000000000000000000000000000000000000815260040180806020018281038252601c8152602001807f436f756c64206e6f7420766572696679207468652063616c6c65722e0000000081525060200191505060405180910390fd5b6115ef336124f1565b611661576040517f08c379a00000000000000000000000000000000000000000000000000000000081526004018080602001828103825260208152602001807f596f7520646f206e6f74206861766520746865206661726d657220726f6c652e81525060200191505060405180910390fd5b600160086000858152602001908152602001600020600b0160006101000a81548160ff0219169083600781111561169457fe5b02179055507f06974b56d21c283fee3ed0905f648b2e17cb684cc8dc972ea99704bea957814e836040518082815260200191505060405180910390a1505050565b60006116eb826004612dc390919063ffffffff16565b9050919050565b6116fb336124f1565b61176d576040517f08c379a00000000000000000000000000000000000000000000000000000000081526004018080602001828103825260208152602001807f596f7520646f206e6f74206861766520746865206661726d657220726f6c652e81525060200191505060405180910390fd5b60075460086000898152602001908152602001600020600001819055506006546008600089815260200190815260200160002060010181905550856008600089815260200190815260200160002060020160006101000a81548173ffffffffffffffffffffffffffffffffffffffff021916908373ffffffffffffffffffffffffffffffffffffffff160217905550856008600089815260200190815260200160002060030160006101000a81548173ffffffffffffffffffffffffffffffffffffffff021916908373ffffffffffffffffffffffffffffffffffffffff1602179055508460086000898152602001908152602001600020600401908051906020019061187b929190613366565b50836008600089815260200190815260200160002060050190805190602001906118a6929190613366565b50826008600089815260200190815260200160002060060190805190602001906118d1929190613366565b50816008600089815260200190815260200160002060070190805190602001906118fc929190613366565b506007548701600860008981526020019081526020016000206008018190555080600860008981526020019081526020016000206009019080519060200190611946929190613366565b50600060086000898152602001908152602001600020600b0160006101000a81548160ff0219169083600781111561197a57fe5b02179055506001600754016007819055507f278111f058fcc15883749957935fb9630ea32a108dd40081364d762353441ccb876040518082815260200191505060405180910390a150505050505050565b6119d433612e55565b565b6119df33612eaf565b565b600080600060606000806000806000600860008b8152602001908152602001600020600001549850600860008b8152602001908152602001600020600101549750600860008b8152602001908152602001600020600801549650600860008b81526020019081526020016000206009018054600181600116156101000203166002900480601f016020809104026020016040519081016040528092919081815260200182805460018160011615610100020316600290048015611ae55780601f10611aba57610100808354040283529160200191611ae5565b820191906000526020600020905b815481529060010190602001808311611ac857829003601f168201915b50505050509550600860008b8152602001908152602001600020600a01549450600860008b8152602001908152602001600020600b0160009054906101000a900460ff166007811115611b3457fe5b9350600860008b8152602001908152602001600020600b0160019054906101000a900473ffffffffffffffffffffffffffffffffffffffff169250600860008b8152602001908152602001600020600c0160009054906101000a900473ffffffffffffffffffffffffffffffffffffffff169150600860008b8152602001908152602001600020600d0160009054906101000a900473ffffffffffffffffffffffffffffffffffffffff1690509193959799909294969850565b611bf6612246565b611c4b576040517f08c379a000000000000000000000000000000000000000000000000000000000815260040180806020018281038252602f815260200180613539602f913960400191505060405180910390fd5b600073ffffffffffffffffffffffffffffffffffffffff166000809054906101000a900473ffffffffffffffffffffffffffffffffffffffff1673ffffffffffffffffffffffffffffffffffffffff167f5c486528ec3e3f0ea91181cff8116f02bfa350e03b8b6f12e00765adbb5af85c60405160405180910390a360008060006101000a81548173ffffffffffffffffffffffffffffffffffffffff021916908373ffffffffffffffffffffffffffffffffffffffff160217905550565b611d1333612229565b611d68576040517f08c379a000000000000000000000000000000000000000000000000000000000815260040180806020018281038252602581526020018061342e6025913960400191505060405180910390fd5b611d7181612f09565b50565b600080600080606080606080600860008a8152602001908152602001600020600001549750600860008a8152602001908152602001600020600101549650600860008a815260200190815260200160002060020160009054906101000a900473ffffffffffffffffffffffffffffffffffffffff169550600860008a815260200190815260200160002060030160009054906101000a900473ffffffffffffffffffffffffffffffffffffffff169450600860008a81526020019081526020016000206004018054600181600116156101000203166002900480601f016020809104026020016040519081016040528092919081815260200182805460018160011615610100020316600290048015611ece5780601f10611ea357610100808354040283529160200191611ece565b820191906000526020600020905b815481529060010190602001808311611eb157829003601f168201915b50505050509350600860008a81526020019081526020016000206005018054600181600116156101000203166002900480601f016020809104026020016040519081016040528092919081815260200182805460018160011615610100020316600290048015611f7f5780601f10611f5457610100808354040283529160200191611f7f565b820191906000526020600020905b815481529060010190602001808311611f6257829003601f168201915b50505050509250600860008a81526020019081526020016000206006018054600181600116156101000203166002900480601f0160208091040260200160405190810160405280929190818152602001828054600181600116156101000203166002900480156120305780601f1061200557610100808354040283529160200191612030565b820191906000526020600020905b81548152906001019060200180831161201357829003601f168201915b50505050509150600860008a81526020019081526020016000206007018054600181600116156101000203166002900480601f0160208091040260200160405190810160405280929190818152602001828054600181600116156101000203166002900480156120e15780601f106120b6576101008083540402835291602001916120e1565b820191906000526020600020905b8154815290600101906020018083116120c457829003601f168201915b50505050509050919395975091939597565b6120fc336124f1565b61216e576040517f08c379a00000000000000000000000000000000000000000000000000000000081526004018080602001828103825260208152602001807f596f7520646f206e6f74206861766520746865206661726d657220726f6c652e81525060200191505060405180910390fd5b61217781612f63565b50565b61218333612fbd565b565b600061219b826001612dc390919063ffffffff16565b9050919050565b6121ab336116d5565b61221d576040517f08c379a00000000000000000000000000000000000000000000000000000000081526004018080602001828103825260208152602001807f596f7520646f206e6f74206861766520746865206661726d657220726f6c652e81525060200191505060405180910390fd5b61222681613017565b50565b600061223f826002612dc390919063ffffffff16565b9050919050565b60008060009054906101000a900473ffffffffffffffffffffffffffffffffffffffff1673ffffffffffffffffffffffffffffffffffffffff163373ffffffffffffffffffffffffffffffffffffffff1614905090565b80600560078111156122ab57fe5b60086000838152602001908152602001600020600b0160009054906101000a900460ff1660078111156122da57fe5b14612330576040517f08c379a00000000000000000000000000000000000000000000000000000000081526004018080602001828103825260278152602001806135686027913960400191505060405180910390fd5b612339336116d5565b6123ab576040517f08c379a00000000000000000000000000000000000000000000000000000000081526004018080602001828103825260208152602001807f596f7520646f206e6f74206861766520746865206661726d657220726f6c652e81525060200191505060405180910390fd5b336008600084815260200190815260200160002060020160006101000a81548173ffffffffffffffffffffffffffffffffffffffff021916908373ffffffffffffffffffffffffffffffffffffffff1602179055503360086000848152602001908152602001600020600c0160006101000a81548173ffffffffffffffffffffffffffffffffffffffff021916908373ffffffffffffffffffffffffffffffffffffffff160217905550600660086000848152602001908152602001600020600b0160006101000a81548160ff0219169083600781111561248857fe5b02179055507fa8142743f8f70a4c26f3691cf4ed59718381fb2f18070ec52be1f1022d855557826040518082815260200191505060405180910390a15050565b60008060009054906101000a900473ffffffffffffffffffffffffffffffffffffffff16905090565b6000612507826003612dc390919063ffffffff16565b9050919050565b806006600781111561251c57fe5b60086000838152602001908152602001600020600b0160009054906101000a900460ff16600781111561254b57fe5b146125a1576040517f08c379a00000000000000000000000000000000000000000000000000000000081526004018080602001828103825260248152602001806135156024913960400191505060405180910390fd5b6125aa33612185565b6125ff576040517f08c379a00000000000000000000000000000000000000000000000000000000081526004018080602001828103825260228152602001806134536022913960400191505060405180910390fd5b336008600084815260200190815260200160002060020160006101000a81548173ffffffffffffffffffffffffffffffffffffffff021916908373ffffffffffffffffffffffffffffffffffffffff1602179055503360086000848152602001908152602001600020600d0160006101000a81548173ffffffffffffffffffffffffffffffffffffffff021916908373ffffffffffffffffffffffffffffffffffffffff160217905550600760086000848152602001908152602001600020600b0160006101000a81548160ff021916908360078111156126dc57fe5b02179055507f653d56639fee6b566a5c804764e9689de38645f0b733df89a36a1b7b42173dd8826040518082815260200191505060405180910390a15050565b61272533613071565b565b806003600781111561273557fe5b60086000838152602001908152602001600020600b0160009054906101000a900460ff16600781111561276457fe5b146127ba576040517f08c379a00000000000000000000000000000000000000000000000000000000081526004018080602001828103825260248152602001806134756024913960400191505060405180910390fd5b60086000838152602001908152602001600020600a01548034101561282a576040517f08c379a00000000000000000000000000000000000000000000000000000000081526004018080602001828103825260358152602001806134e06035913960400191505060405180910390fd5b8261283433612229565b612889576040517f08c379a000000000000000000000000000000000000000000000000000000000815260040180806020018281038252602581526020018061342e6025913960400191505060405180910390fd5b336008600086815260200190815260200160002060020160006101000a81548173ffffffffffffffffffffffffffffffffffffffff021916908373ffffffffffffffffffffffffffffffffffffffff1602179055503360086000868152602001908152602001600020600b0160016101000a81548173ffffffffffffffffffffffffffffffffffffffff021916908373ffffffffffffffffffffffffffffffffffffffff160217905550600460086000868152602001908152602001600020600b0160006101000a81548160ff0219169083600781111561296657fe5b02179055503373ffffffffffffffffffffffffffffffffffffffff166108fc60086000878152602001908152602001600020600a01549081150290604051600060405180830381858888f193505050501580156129c7573d6000803e3d6000fd5b507f92f64ca637d023f354075a4be751b169c1a8a9ccb6d33cdd0cb3520543995727846040518082815260200191505060405180910390a1600060086000838152602001908152602001600020600a015490506000813403905060086000848152602001908152602001600020600d0160009054906101000a900473ffffffffffffffffffffffffffffffffffffffff1673ffffffffffffffffffffffffffffffffffffffff166108fc829081150290604051600060405180830381858888f19350505050158015612a9d573d6000803e3d6000fd5b50505050505050565b612aae612246565b612b03576040517f08c379a000000000000000000000000000000000000000000000000000000000815260040180806020018281038252602f815260200180613539602f913960400191505060405180910390fd5b612b0c816130cb565b50565b8060016007811115612b1d57fe5b60086000838152602001908152602001600020600b0160009054906101000a900460ff166007811115612b4c57fe5b14612ba2576040517f08c379a000000000000000000000000000000000000000000000000000000000815260040180806020018281038252602281526020018061340c6022913960400191505060405180910390fd5b6008600083815260200190815260200160002060020160009054906101000a900473ffffffffffffffffffffffffffffffffffffffff168073ffffffffffffffffffffffffffffffffffffffff163373ffffffffffffffffffffffffffffffffffffffff1614612c7a576040517f08c379a000000000000000000000000000000000000000000000000000000000815260040180806020018281038252601c8152602001807f436f756c64206e6f7420766572696679207468652063616c6c65722e0000000081525060200191505060405180910390fd5b612c83336124f1565b612cf5576040517f08c379a00000000000000000000000000000000000000000000000000000000081526004018080602001828103825260208152602001807f596f7520646f206e6f74206861766520746865206661726d657220726f6c652e81525060200191505060405180910390fd5b600260086000858152602001908152602001600020600b0160006101000a81548160ff02191690836007811115612d2857fe5b02179055507f9b3b66e2380b690bae22c73ef1428fb0c91e72fe14a4b6defa13035214187aff836040518082815260200191505060405180910390a1505050565b612d7d81600161320f90919063ffffffff16565b8073ffffffffffffffffffffffffffffffffffffffff167f28b26e7a3d20aedbc5f8f2ebf7da671c0491723a2b78f47a097b0e46dee0714260405160405180910390a250565b60008073ffffffffffffffffffffffffffffffffffffffff168273ffffffffffffffffffffffffffffffffffffffff161415612dfe57600080fd5b8260000160008373ffffffffffffffffffffffffffffffffffffffff1673ffffffffffffffffffffffffffffffffffffffff16815260200190815260200160002060009054906101000a900460ff16905092915050565b612e698160016132bb90919063ffffffff16565b8073ffffffffffffffffffffffffffffffffffffffff167fe3f5ed5f263f1f01764a96edfc7d025f511ec5f7d180e8816908b78bcf74f09860405160405180910390a250565b612ec38160026132bb90919063ffffffff16565b8073ffffffffffffffffffffffffffffffffffffffff167f126174f6cf49c81cdb4a9214c6b8f037bef55b4ec31e4fc776cea2a1c8a88d5960405160405180910390a250565b612f1d81600261320f90919063ffffffff16565b8073ffffffffffffffffffffffffffffffffffffffff167fddbf200aa634dc3fb81cfd68583dd1040d1c751d335e1d86b631bde3e977fea860405160405180910390a250565b612f7781600361320f90919063ffffffff16565b8073ffffffffffffffffffffffffffffffffffffffff167f2e0ded4123377a3c2bc9a26f1717655a129e2f20752924d42e730ec89c83dbd060405160405180910390a250565b612fd18160036132bb90919063ffffffff16565b8073ffffffffffffffffffffffffffffffffffffffff167fa5e0f060af304ab17dd418c7927e3da3ae7868189bf387aee09ab179ccc572f260405160405180910390a250565b61302b81600461320f90919063ffffffff16565b8073ffffffffffffffffffffffffffffffffffffffff167f71ae26cad02663e3d92efd6ec56031a80d74a20c0ab4183faa8bf262261c9baa60405160405180910390a250565b6130858160046132bb90919063ffffffff16565b8073ffffffffffffffffffffffffffffffffffffffff167fdb7176e79cffef81cb01767dd0447a0b24bb72ca9778d4b245581086b2a7e6db60405160405180910390a250565b600073ffffffffffffffffffffffffffffffffffffffff168173ffffffffffffffffffffffffffffffffffffffff161415613151576040517f08c379a00000000000000000000000000000000000000000000000000000000081526004018080602001828103825260228152602001806134be6022913960400191505060405180910390fd5b8073ffffffffffffffffffffffffffffffffffffffff166000809054906101000a900473ffffffffffffffffffffffffffffffffffffffff1673ffffffffffffffffffffffffffffffffffffffff167f5c486528ec3e3f0ea91181cff8116f02bfa350e03b8b6f12e00765adbb5af85c60405160405180910390a3806000806101000a81548173ffffffffffffffffffffffffffffffffffffffff021916908373ffffffffffffffffffffffffffffffffffffffff16021790555050565b600073ffffffffffffffffffffffffffffffffffffffff168173ffffffffffffffffffffffffffffffffffffffff16141561324957600080fd5b6132538282612dc3565b1561325d57600080fd5b60018260000160008373ffffffffffffffffffffffffffffffffffffffff1673ffffffffffffffffffffffffffffffffffffffff16815260200190815260200160002060006101000a81548160ff0219169083151502179055505050565b600073ffffffffffffffffffffffffffffffffffffffff168173ffffffffffffffffffffffffffffffffffffffff1614156132f557600080fd5b6132ff8282612dc3565b61330857600080fd5b60008260000160008373ffffffffffffffffffffffffffffffffffffffff1673ffffffffffffffffffffffffffffffffffffffff16815260200190815260200160002060006101000a81548160ff0219169083151502179055505050565b828054600181600116156101000203166002900490600052602060002090601f016020900481019282601f106133a757805160ff19168380011785556133d5565b828001600101855582156133d5579182015b828111156133d45782518255916020019190600101906133b9565b5b5090506133e291906133e6565b5090565b61340891905b808211156134045760008160009055506001016133ec565b5090565b9056fe4974656d206973206e6f7420696e207468652027546573746564272053746174652e596f7520646f206e6f74206861766520746865206469737472696275746f7220726f6c652e596f7520646f206e6f7420686176652074686520636f6e73756d657220726f6c652e4974656d206973206e6f7420696e207468652027466f722053616c65272053746174652e4974656d206973206e6f7420696e207468652027436f6c6c6563746564272053746174652e54686520616464726573732070726f7669646564206973206e6f742076616c69642e54686520616d6f756e742070616964206973206e6f742073756666696369656e7420746f20636f766572207468652070726963652e4974656d206973206e6f7420696e2074686520275265636569766564272053746174652e4f6e6c792074686520636f6e7472616374206f776e65722063616e2063616c6c20746869732066756e6374696f6e2e4974656d206973206e6f7420696e2074686520275472616e73706f72746564272053746174652e4974656d206973206e6f7420696e2074686520275061636b6564272053746174652ea165627a7a723058204ef3153d32f5710ece5cb8e82999df81fb684533d7750029f19f0b847ac25db90029",
  "source": "pragma solidity ^0.5.7;\n\nimport '../OwnerCore/Ownable.sol';\nimport '../RoleModel/ConsumerRole.sol';\nimport '../RoleModel/DistributorRole.sol';\nimport '../RoleModel/FarmerRole.sol';\nimport '../RoleModel/RetailerRole.sol';\n\n\n// Define a contract 'Supplychain'\ncontract SupplyChain is Ownable, ConsumerRole, DistributorRole, FarmerRole, RetailerRole {\n\n  // Define 'owner'\n  address payable owner;\n\n  // Define a variable called 'UPC' for Universal Product Code (UPC)\n  uint  UPC;\n\n  // Define a variable called 'SKU' for Stock Keeping Unit (SKU)\n  uint  SKU;\n\n  // Define a public mapping 'items' that maps the UPC to an Item.\n  mapping (uint => Item) items;\n\n  // Define a public mapping 'itemsHistory' that maps the UPC to an array of TxHash,\n  // that tracks its journey through the supply chain -- to be sent from DApp.\n  mapping (uint => string[]) itemsHistory;\n\n  // Define enum 'State' with the following values:\n  enum State {\n    Collected, // 0\n    Tested, // 1\n    Packed, // 2\n    ForSale, // 3\n    Sold, // 4\n    Transported, // 5\n    Received, // 6\n    Purchased // 7\n  }\n\n  State constant defaultState = State.Collected;\n\n  // Define a struct 'Item' with the following fields:\n  struct Item {\n    uint SKU;  // Stock Keeping Unit (SKU)\n    uint UPC; // Universal Product Code (UPC), generated by the Farmer, goes on the package, can be verified by the Consumer\n    address ownerID;  // Metamask-Ethereum address of the current owner as the product moves through 8 stages\n    address originFarmerID; // Metamask-Ethereum address of the Farmer\n    string originFarmName; // Farmer Name\n    string originFarmInformation;  // Farmer Information\n    string originFarmLatitude; // Farm Latitude\n    string originFarmLongitude;  // Farm Longitude\n    uint productID;  // Product ID potentially a combination of UPC + SKU\n    string productNotes; // Product Notes\n    uint productPrice; // Product Price\n    State itemState;  // Product State as represented in the enum above\n    address distributorID;  // Metamask-Ethereum address of the Distributor\n    address retailerID; // Metamask-Ethereum address of the Retailer\n    address payable consumerID; // Metamask-Ethereum address of the Consumer\n  }\n\n  // Define 8 events with the same 8 state values and accept 'UPC' as input argument\n  event Collected(uint UPC);\n  event Tested(uint UPC);\n  event Packed(uint UPC);\n  event ForSale(uint UPC);\n  event Sold(uint UPC);\n  event Transported(uint UPC);\n  event Received(uint UPC);\n  event Purchased(uint UPC);\n\n  // Define a modifer that verifies the Caller\n  modifier verifyCaller (address _address) {\n    require(msg.sender == _address, \"Could not verify the caller.\");\n    _;\n  }\n\n  // Define a modifier that checks if the paid amount is sufficient to cover the price\n  modifier paidEnough(uint _price) {\n    require(msg.value >= _price, \"The amount paid is not sufficient to cover the price.\");\n    _;\n  }\n\n  // Define a modifier that checks the price and refunds the remaining balance\n  modifier checkValue(uint _UPC) {\n    _;\n    uint _price = items[_UPC].productPrice;\n    uint amountToReturn = msg.value - _price;\n    items[_UPC].consumerID.transfer(amountToReturn);\n  }\n\n  // Define a modifier that checks if an item.state of a UPC is collected\n  modifier collected(uint _UPC) {\n    require(items[_UPC].itemState == State.Collected, \"Item is not in the 'Collected' State.\");\n    _;\n  }\n\n  // Define a modifier that checks if an item.state of a UPC is Tested\n  modifier tested(uint _UPC) {\n    require(items[_UPC].itemState == State.Tested, \"Item is not in the 'Tested' State.\");\n    _;\n  }\n\n  // Define a modifier that checks if an item.state of a UPC is Packed\n  modifier packed(uint _UPC) {\n    require(items[_UPC].itemState == State.Packed, \"Item is not in the 'Packed' State.\");\n    _;\n  }\n\n  // Define a modifier that checks if an item.state of a UPC is ForSale\n  modifier forSale(uint _UPC) {\n    require(items[_UPC].itemState == State.ForSale, \"Item is not in the 'For Sale' State.\");\n    _;\n  }\n\n  // Define a modifier that checks if an item.state of a UPC is Sold\n  modifier sold(uint _UPC) {\n    require(items[_UPC].itemState == State.Sold, \"Item is not in the 'Sold' State.\");\n    _;\n  }\n\n  // Define a modifier that checks if an item.state of a UPC is Transported\n  modifier transported(uint _UPC) {\n    require(items[_UPC].itemState == State.Transported, \"Item is not in the 'Transported' State.\");\n    _;\n  }\n\n  // Define a modifier that checks if an item.state of a UPC is Received\n  modifier received(uint _UPC) {\n    require(items[_UPC].itemState == State.Received, \"Item is not in the 'Received' State.\");\n    _;\n  }\n\n  // Define a modifier that checks if an item.state of a UPC is Purchased\n  modifier purchased(uint _UPC) {\n    require(items[_UPC].itemState == State.Purchased, \"Item is not in the 'Purchased' State.\");\n    _;\n  }\n\n  // In the constructor set 'owner' to the address that instantiated the contract\n  // and set 'SKU' to 1\n  // and set 'UPC' to 1\n  constructor() public payable {\n    owner = msg.sender;\n    SKU = 1;\n    UPC = 1;\n  }\n\n  // Define a function 'kill' if required\n  function kill() public {\n    if (msg.sender == owner) {\n      selfdestruct(owner);\n    }\n  }\n\n  // Define a function 'CollectItem' that allows a farmer to mark an item 'collected'\n  function collectItem (\n    uint _UPC,\n    address _originFarmerID,\n    string memory _originFarmName,\n    string memory _originFarmInformation,\n    string memory _originFarmLatitude,\n    string memory _originFarmLongitude,\n    string memory _productNotes)\n    public\n    onlyFarmer\n  {\n      // Add the new item as part of Collect\n      items[_UPC].SKU = SKU;\n      items[_UPC].UPC = UPC;\n      items[_UPC].ownerID = _originFarmerID;\n      items[_UPC].originFarmerID = _originFarmerID;\n      items[_UPC].originFarmName = _originFarmName;\n      items[_UPC].originFarmInformation = _originFarmInformation;\n      items[_UPC].originFarmLatitude = _originFarmLatitude;\n      items[_UPC].originFarmLongitude = _originFarmLongitude;\n      items[_UPC].productID = _UPC + SKU;\n      items[_UPC].productNotes = _productNotes;\n      items[_UPC].itemState = State.Collected;\n      // Increment SKU\n      SKU = SKU + 1;\n      // Emit the appropriate event\n      emit Collected(_UPC);\n  }\n\n  // Define a function 'testtItem' that allows a farmer to mark an item 'Tested'\n  function testItem(uint _UPC) public\n    // Call modifier to check if UPC has passed previous supply chain stage\n    collected(_UPC)\n    // Call modifier to verify caller of this function\n    verifyCaller(items[_UPC].ownerID)\n    onlyFarmer\n  {\n    // Update the appropriate fields\n    items[_UPC].itemState = State.Tested;\n    // Emit the appropriate event\n    emit Tested(_UPC);\n  }\n\n  // Define a function 'packItem' that allows a farmer to mark an item 'Packed'\n  function packItem(uint _UPC) public\n    // Call modifier to check if UPC has passed previous supply chain stage\n    tested(_UPC)\n    // Call modifier to verify caller of this function\n    verifyCaller(items[_UPC].ownerID)\n    onlyFarmer\n  {\n    // Update the appropriate fields\n    items[_UPC].itemState = State.Packed;\n    // Emit the appropriate event\n    emit Packed(_UPC);\n  }\n\n  // Define a function 'sellItem' that allows a farmer to mark an item 'ForSale'\n  function sellItem(uint _UPC, uint _price) public\n    // Call modifier to check if UPC has passed previous supply chain stage\n    packed(_UPC)\n    // Call modifier to verify caller of this function\n    verifyCaller(items[_UPC].ownerID)\n    onlyFarmer\n  {\n    // Update the appropriate fields\n    items[_UPC].productPrice = _price;\n    items[_UPC].itemState = State.ForSale;\n    // Emit the appropriate event\n    emit ForSale(_UPC);\n  }\n\n  // Define a function 'buyItem' that allows the disributor to mark an item 'Sold'\n  // Use the above defined modifiers to check if the item is available for sale, if the buyer has paid enough,\n  // and any excess ether sent is refunded back to the buyer\n  function buyItem(uint _UPC) public payable\n    // Call modifier to check if UPC has passed previous supply chain stage\n    forSale(_UPC)\n    // Call modifer to check if buyer has paid enough\n    paidEnough(items[_UPC].productPrice)\n    // Call modifer to send any excess ether back to buyer\n    checkValue(_UPC)\n    onlyDistributor\n  {\n    // Update the appropriate fields - ownerID, distributorID, itemState\n    items[_UPC].ownerID = msg.sender;\n    items[_UPC].distributorID = msg.sender;\n    items[_UPC].itemState = State.Sold;\n    // Transfer money to farmer\n    msg.sender.transfer(items[_UPC].productPrice);\n    // emit the appropriate event\n    emit Sold(_UPC);\n  }\n\n  // Define a function 'transportItem' that allows the distributor to mark an item 'Transported'\n  // Use the above modifers to check if the item is sold\n  function transportItem(uint _UPC) public\n    // Call modifier to check if UPC has passed previous supply chain stage\n    sold(_UPC)\n    // Call modifier to verify caller of this function\n    verifyCaller(items[_UPC].ownerID)\n    onlyDistributor\n  {\n    // Update the appropriate fields\n    items[_UPC].itemState = State.Transported;\n    // Emit the appropriate event\n    emit Transported(_UPC);\n  }\n\n  // Define a function 'receiveItem' that allows the retailer to mark an item 'Received'\n  // Use the above modifiers to check if the item is transported\n  function receiveItem(uint _UPC) public\n    // Call modifier to check if UPC has passed previous supply chain stage\n    transported(_UPC)\n    // Access Control List enforced by calling Smart Contract / DApp\n    onlyRetailer\n  {\n    // Update the appropriate fields - ownerID, retailerID, itemState\n    items[_UPC].ownerID = msg.sender;\n    items[_UPC].retailerID = msg.sender;\n    items[_UPC].itemState = State.Received;\n    // Emit the appropriate event\n    emit Received(_UPC);\n  }\n\n  // Define a function 'purchaseItem' that allows the consumer to mark an item 'Purchased'\n  // Use the above modifiers to check if the item is received\n  function purchaseItem(uint _UPC) public\n    // Call modifier to check if UPC has passed previous supply chain stage\n    received(_UPC)\n    // Access Control List enforced by calling Smart Contract / DApp\n    onlyConsumer\n    {\n    // Update the appropriate fields - ownerID, consumerID, itemState\n    items[_UPC].ownerID = msg.sender;\n    items[_UPC].consumerID = msg.sender;\n    items[_UPC].itemState = State.Purchased;\n    // Emit the appropriate event\n    emit Purchased(_UPC);\n  }\n\n  // Define a function 'fetchItemBufferOne' that fetches the data\n  function fetchItemBufferOne(uint _UPC) public view returns (\n    uint itemSKU,\n    uint itemUPC,\n    address ownerID,\n    address originFarmerID,\n    string memory originFarmName,\n    string memory originFarmInformation,\n    string memory originFarmLatitude,\n    string memory originFarmLongitude\n  )\n  {\n  // Assign values to the 8 parameters\n    itemSKU = items[_UPC].SKU;\n    itemUPC = items[_UPC].UPC;\n    ownerID = items[_UPC].ownerID;\n    originFarmerID = items[_UPC].originFarmerID;\n    originFarmName = items[_UPC].originFarmName;\n    originFarmInformation = items[_UPC].originFarmInformation;\n    originFarmLatitude = items[_UPC].originFarmLatitude;\n    originFarmLongitude = items[_UPC].originFarmLongitude;\n  }\n\n  // Define a function 'fetchItemBufferTwo' that fetches the data\n  function fetchItemBufferTwo(uint _UPC) public view returns (\n    uint itemSKU,\n    uint itemUPC,\n    uint productID,\n    string memory productNotes,\n    uint productPrice,\n    uint itemState,\n    address distributorID,\n    address retailerID,\n    address consumerID\n  )\n  {\n    // Assign values to the 9 parameters\n    itemSKU = items[_UPC].SKU;\n    itemUPC = items[_UPC].UPC;\n    productID = items[_UPC].productID;\n    productNotes = items[_UPC].productNotes;\n    productPrice = items[_UPC].productPrice;\n    itemState = uint(items[_UPC].itemState);\n    distributorID = items[_UPC].distributorID;\n    retailerID = items[_UPC].retailerID;\n    consumerID = items[_UPC].consumerID;\n  }\n}\n",
  "sourcePath": "C:/Users/User/Desktop/Blockchain_Developer_Github/Project 6B/project-6/contracts/SupplyBase/SupplyChain.sol",
  "compiler": {
    "name": "solc",
    "version": "0.5.8+commit.23d335f2.Emscripten.clang"
  },
  "schemaVersion": "3.0.16",
  "updatedAt": "2019-10-31T15:42:13.038Z",
  "devdoc": {
    "methods": {}
  },
  "userdoc": {
    "methods": {
      "_owner()": {
        "notice": "Look up the address of the owner"
      },
      "isOwner()": {
        "notice": "Check if the calling address is the owner of the contract"
      },
      "renounceOwnership()": {
        "notice": "Define a function to renounce ownerhip"
      },
      "transferOwnership(address)": {
        "notice": "Define a public function to transfer ownership"
      }
    }
  }
}